:100000000C9446000C945D000C945D000C945D0013
:100010000C945D000C945D000C945D000C945D00EC
:100020000C945D000C945D000C945D000C945D00DC
:100030000C945D000C945D000C945D000C945D00CC
:100040000C945D000C945D000C945D000C945D00BC
:100050000C945D000C945D000C945D000C945D00AC
:100060000C945D000C945D000C945D000C945D009C
:100070000C945D000C945D000C945D000C945D008C
:100080000C945D000C945D000C945D0011241FBE67
:10009000CFEFD0E4DEBFCDBF11E0A0E0B1E0E0E4FF
:1000A000F2E000E00BBF02C007900D92AE30B10746
:1000B000D9F70E9488000C941E010C940000CF9385
:1000C000DF9300D01F92CDB7DEB789837B836A832D
:1000D00089818A3031F48A819B81BC018DE00E9444
:1000E0005F0080EC90E0FC018081882F90E08072BE
:1000F00099270097B1F386EC90E02981FC012083D9
:1001000080E090E00F900F900F90DF91CF910895D5
:10011000CF93DF93CDB7DEB728970FB6F894DEBF45
:100120000FBECDBF81E290E0FC01108282E290E040
:100130002FEFFC01208384E290E0FC01108285E235
:1001400090E02FEFFC01208387E290E0FC01108219
:1001500088E290E02FEFFC0120838AE290E02FEF0D
:10016000FC0120838BE290E0FC0110821C821D8246
:100170001E8218861F821A8219821B8280E290E0FA
:10018000FC0180818C8383E290E0FC0180818D837F
:1001900086E290E0FC0180818E838C81282F30E004
:1001A0008D81882F90E0280F391F8E81882F90E055
:1001B000820F931F98878F838C81282F30E08E8148
:1001C000882F90E0A901481B590BCA019A838983A3
:1001D00089819A8199233CF489819A8191958195AD
:1001E00091099A8389838F8198858D38910518F0BC
:1001F0008B8181608B8389819A81813591051CF087
:100200008B8182608B838F81988596958795969553
:10021000879598878F838F819885880F991F880F7E
:10022000991F98878F838F819B81892B8B838BE28A
:1002300090E02B81FC0120831B82A0CFF894FFCF9C
:0E02400000000002000000005F00000000004F
:00000001FF
